{
  "_format": "hh-sol-artifact-1",
  "contractName": "WavePortal",
  "sourceName": "contracts/WavePortal.sol",
  "abi": [
    {
      "inputs": [],
      "stateMutability": "payable",
      "type": "constructor"
    },
    {
      "anonymous": false,
      "inputs": [
        {
          "indexed": true,
          "internalType": "address",
          "name": "from",
          "type": "address"
        },
        {
          "indexed": false,
          "internalType": "uint256",
          "name": "timestamp",
          "type": "uint256"
        },
        {
          "indexed": false,
          "internalType": "string",
          "name": "message",
          "type": "string"
        },
        {
          "indexed": false,
          "internalType": "string",
          "name": "devil",
          "type": "string"
        }
      ],
      "name": "NewWave",
      "type": "event"
    },
    {
      "inputs": [],
      "name": "getAllWaves",
      "outputs": [
        {
          "components": [
            {
              "internalType": "address",
              "name": "waver",
              "type": "address"
            },
            {
              "internalType": "string",
              "name": "message",
              "type": "string"
            },
            {
              "internalType": "uint256",
              "name": "timestamp",
              "type": "uint256"
            },
            {
              "internalType": "uint8",
              "name": "devilfruittype",
              "type": "uint8"
            },
            {
              "internalType": "uint8",
              "name": "crewmate",
              "type": "uint8"
            }
          ],
          "internalType": "struct WavePortal.Wave[]",
          "name": "",
          "type": "tuple[]"
        }
      ],
      "stateMutability": "view",
      "type": "function"
    },
    {
      "inputs": [],
      "name": "getCrewMates",
      "outputs": [
        {
          "components": [
            {
              "internalType": "address",
              "name": "waver",
              "type": "address"
            },
            {
              "internalType": "string",
              "name": "message",
              "type": "string"
            },
            {
              "internalType": "uint256",
              "name": "timestamp",
              "type": "uint256"
            },
            {
              "internalType": "uint8",
              "name": "devilfruittype",
              "type": "uint8"
            },
            {
              "internalType": "uint8",
              "name": "crewmate",
              "type": "uint8"
            }
          ],
          "internalType": "struct WavePortal.Wave[]",
          "name": "",
          "type": "tuple[]"
        }
      ],
      "stateMutability": "view",
      "type": "function"
    },
    {
      "inputs": [],
      "name": "getTotalWaves",
      "outputs": [
        {
          "internalType": "uint256",
          "name": "",
          "type": "uint256"
        }
      ],
      "stateMutability": "view",
      "type": "function"
    },
    {
      "inputs": [
        {
          "internalType": "address",
          "name": "",
          "type": "address"
        }
      ],
      "name": "lastWavedAt",
      "outputs": [
        {
          "internalType": "uint256",
          "name": "",
          "type": "uint256"
        }
      ],
      "stateMutability": "view",
      "type": "function"
    },
    {
      "inputs": [
        {
          "internalType": "string",
          "name": "_message",
          "type": "string"
        },
        {
          "internalType": "uint8",
          "name": "devilfruit",
          "type": "uint8"
        }
      ],
      "name": "wave",
      "outputs": [],
      "stateMutability": "nonpayable",
      "type": "function"
    }
  ],
  "bytecode": "0x608060405262000033604051806060016040528060328152602001620019b6603291396200003960201b62000a071760201c565b620001cd565b620000d98160405160240162000050919062000146565b6040516020818303038152906040527f41304fac000000000000000000000000000000000000000000000000000000007bffffffffffffffffffffffffffffffffffffffffffffffffffffffff19166020820180517bffffffffffffffffffffffffffffffffffffffffffffffffffffffff8381831617835250505050620000dc60201b60201c565b50565b60008151905060006a636f6e736f6c652e6c6f679050602083016000808483855afa5050505050565b600062000112826200016a565b6200011e818562000175565b93506200013081856020860162000186565b6200013b81620001bc565b840191505092915050565b6000602082019050818103600083015262000162818462000105565b905092915050565b600081519050919050565b600082825260208201905092915050565b60005b83811015620001a657808201518184015260208101905062000189565b83811115620001b6576000848401525b50505050565b6000601f19601f8301169050919050565b6117d980620001dd6000396000f3fe608060405234801561001057600080fd5b50600436106100575760003560e01c806374ea5db91461005c5780639a2cdc0814610078578063a42a466314610096578063bd43a908146100c6578063f0d307a0146100e4575b600080fd5b61007660048036038101906100719190610eb9565b610102565b005b61008061056b565b60405161008d91906112cb565b60405180910390f35b6100b060048036038101906100ab9190610e90565b6105b6565b6040516100bd91906112cb565b60405180910390f35b6100ce6105ce565b6040516100db91906111b2565b60405180910390f35b6100ec610759565b6040516100f991906111b2565b60405180910390f35b600160008082825461011491906113fd565b9250508190555042601e600160003373ffffffffffffffffffffffffffffffffffffffff1673ffffffffffffffffffffffffffffffffffffffff1681526020019081526020016000205461016891906113fd565b106101a8576040517f08c379a000000000000000000000000000000000000000000000000000000000815260040161019f906112ab565b60405180910390fd5b6101cb604051806060016040528060238152602001611781602391393384610aa0565b60006101d683610b3f565b905060026040518060a001604052803373ffffffffffffffffffffffffffffffffffffffff1681526020018581526020014281526020018460ff1681526020018360ff16815250908060018154018082558091505060019003906000526020600020906004020160009091909190915060008201518160000160006101000a81548173ffffffffffffffffffffffffffffffffffffffff021916908373ffffffffffffffffffffffffffffffffffffffff16021790555060208201518160010190805190602001906102a9929190610d10565b506040820151816002015560608201518160030160006101000a81548160ff021916908360ff16021790555060808201518160030160016101000a81548160ff021916908360ff1602179055505050606060018360ff161415610343576040518060400160405280600981526020017f506172616d65636961000000000000000000000000000000000000000000000081525090506103c6565b60028360ff16141561038c576040518060400160405280600581526020017f4c6f67696100000000000000000000000000000000000000000000000000000081525090506103c5565b6040518060400160405280600481526020017f5a6f616e0000000000000000000000000000000000000000000000000000000081525090505b5b6000655af3107a4000905060018360ff1614156104ce5747811115610420576040517f08c379a00000000000000000000000000000000000000000000000000000000081526004016104179061126b565b60405180910390fd5b60003373ffffffffffffffffffffffffffffffffffffffff16826040516104469061119d565b60006040518083038185875af1925050503d8060008114610483576040519150601f19603f3d011682016040523d82523d6000602084013e610488565b606091505b50509050806104cc576040517f08c379a00000000000000000000000000000000000000000000000000000000081526004016104c39061128b565b60405180910390fd5b505b42600160003373ffffffffffffffffffffffffffffffffffffffff1673ffffffffffffffffffffffffffffffffffffffff168152602001908152602001600020819055503373ffffffffffffffffffffffffffffffffffffffff167f0646f10b0148fe8db9a43af10b6956b53e1478c47afc7132c17e243449dfd33942878560405161055c939291906112e6565b60405180910390a25050505050565b60006105ae6040518060400160405280601981526020017f5765206861766520256420746f74616c206e616b616d61732100000000000000815250600054610bb2565b600054905090565b60016020528060005260406000206000915090505481565b60606002805480602002602001604051908101604052809291908181526020016000905b8282101561075057838290600052602060002090600402016040518060a00160405290816000820160009054906101000a900473ffffffffffffffffffffffffffffffffffffffff1673ffffffffffffffffffffffffffffffffffffffff1673ffffffffffffffffffffffffffffffffffffffff16815260200160018201805461067b906114de565b80601f01602080910402602001604051908101604052809291908181526020018280546106a7906114de565b80156106f45780601f106106c9576101008083540402835291602001916106f4565b820191906000526020600020905b8154815290600101906020018083116106d757829003601f168201915b50505050508152602001600282015481526020016003820160009054906101000a900460ff1660ff1660ff1681526020016003820160019054906101000a900460ff1660ff1660ff1681525050815260200190600101906105f2565b50505050905090565b6060600060028054905067ffffffffffffffff8111156107a2577f4e487b7100000000000000000000000000000000000000000000000000000000600052604160045260246000fd5b6040519080825280602002602001820160405280156107db57816020015b6107c8610d96565b8152602001906001900390816107c05790505b509050600080600090505b6002805490508110156109fe5760006002828154811061082f577f4e487b7100000000000000000000000000000000000000000000000000000000600052603260045260246000fd5b90600052602060002090600402019050600160ff168160030160019054906101000a900460ff1660ff1614156109ea57806040518060a00160405290816000820160009054906101000a900473ffffffffffffffffffffffffffffffffffffffff1673ffffffffffffffffffffffffffffffffffffffff1673ffffffffffffffffffffffffffffffffffffffff1681526020016001820180546108d1906114de565b80601f01602080910402602001604051908101604052809291908181526020018280546108fd906114de565b801561094a5780601f1061091f5761010080835404028352916020019161094a565b820191906000526020600020905b81548152906001019060200180831161092d57829003601f168201915b50505050508152602001600282015481526020016003820160009054906101000a900460ff1660ff1660ff1681526020016003820160019054906101000a900460ff1660ff1660ff16815250508484815181106109d0577f4e487b7100000000000000000000000000000000000000000000000000000000600052603260045260246000fd5b602002602001018190525082806109e690611541565b9350505b5080806109f690611541565b9150506107e6565b50819250505090565b610a9d81604051602401610a1b91906111d4565b6040516020818303038152906040527f41304fac000000000000000000000000000000000000000000000000000000007bffffffffffffffffffffffffffffffffffffffffffffffffffffffff19166020820180517bffffffffffffffffffffffffffffffffffffffffffffffffffffffff8381831617835250505050610c4e565b50565b610b3a838383604051602401610ab8939291906111f6565b6040516020818303038152906040527fe0e9ad4f000000000000000000000000000000000000000000000000000000007bffffffffffffffffffffffffffffffffffffffffffffffffffffffff19166020820180517bffffffffffffffffffffffffffffffffffffffffffffffffffffffff8381831617835250505050610c4e565b505050565b600080600083604051602001610b559190611186565b6040516020818303038152906040528051906020012060001c9050606481610b7d919061158a565b90506046811115610b9a5760019150610b9581610c77565b610ba8565b60009150610ba781610c77565b5b8192505050919050565b610c4a8282604051602401610bc892919061123b565b6040516020818303038152906040527f9710a9d0000000000000000000000000000000000000000000000000000000007bffffffffffffffffffffffffffffffffffffffffffffffffffffffff19166020820180517bffffffffffffffffffffffffffffffffffffffffffffffffffffffff8381831617835250505050610c4e565b5050565b60008151905060006a636f6e736f6c652e6c6f679050602083016000808483855afa5050505050565b610d0d81604051602401610c8b91906112cb565b6040516020818303038152906040527ff5b1bba9000000000000000000000000000000000000000000000000000000007bffffffffffffffffffffffffffffffffffffffffffffffffffffffff19166020820180517bffffffffffffffffffffffffffffffffffffffffffffffffffffffff8381831617835250505050610c4e565b50565b828054610d1c906114de565b90600052602060002090601f016020900481019282610d3e5760008555610d85565b82601f10610d5757805160ff1916838001178555610d85565b82800160010185558215610d85579182015b82811115610d84578251825591602001919060010190610d69565b5b509050610d929190610de1565b5090565b6040518060a00160405280600073ffffffffffffffffffffffffffffffffffffffff1681526020016060815260200160008152602001600060ff168152602001600060ff1681525090565b5b80821115610dfa576000816000905550600101610de2565b5090565b6000610e11610e0c84611350565b61132b565b905082815260208101848484011115610e2957600080fd5b610e3484828561149c565b509392505050565b600081359050610e4b81611752565b92915050565b600082601f830112610e6257600080fd5b8135610e72848260208601610dfe565b91505092915050565b600081359050610e8a81611769565b92915050565b600060208284031215610ea257600080fd5b6000610eb084828501610e3c565b91505092915050565b60008060408385031215610ecc57600080fd5b600083013567ffffffffffffffff811115610ee657600080fd5b610ef285828601610e51565b9250506020610f0385828601610e7b565b9150509250929050565b6000610f1983836110e3565b905092915050565b610f2a81611453565b82525050565b610f3981611453565b82525050565b6000610f4a82611391565b610f5481856113b4565b935083602082028501610f6685611381565b8060005b85811015610fa25784840389528151610f838582610f0d565b9450610f8e836113a7565b925060208a01995050600181019050610f6a565b50829750879550505050505092915050565b6000610fbf8261139c565b610fc981856113d0565b9350610fd98185602086016114ab565b610fe281611677565b840191505092915050565b6000610ff88261139c565b61100281856113e1565b93506110128185602086016114ab565b61101b81611677565b840191505092915050565b60006110318261139c565b61103b81856113f2565b935061104b8185602086016114ab565b80840191505092915050565b60006110646034836113e1565b915061106f82611688565b604082019050919050565b60006110876027836113e1565b9150611092826116d7565b604082019050919050565b60006110aa6012836113e1565b91506110b582611726565b602082019050919050565b60006110cd6000836113c5565b91506110d88261174f565b600082019050919050565b600060a0830160008301516110fb6000860182610f21565b50602083015184820360208601526111138282610fb4565b91505060408301516111286040860182611159565b50606083015161113b6060860182611177565b50608083015161114e6080860182611177565b508091505092915050565b61116281611485565b82525050565b61117181611485565b82525050565b6111808161148f565b82525050565b60006111928284611026565b915081905092915050565b60006111a8826110c0565b9150819050919050565b600060208201905081810360008301526111cc8184610f3f565b905092915050565b600060208201905081810360008301526111ee8184610fed565b905092915050565b600060608201905081810360008301526112108186610fed565b905061121f6020830185610f30565b81810360408301526112318184610fed565b9050949350505050565b600060408201905081810360008301526112558185610fed565b90506112646020830184611168565b9392505050565b6000602082019050818103600083015261128481611057565b9050919050565b600060208201905081810360008301526112a48161107a565b9050919050565b600060208201905081810360008301526112c48161109d565b9050919050565b60006020820190506112e06000830184611168565b92915050565b60006060820190506112fb6000830186611168565b818103602083015261130d8185610fed565b905081810360408301526113218184610fed565b9050949350505050565b6000611335611346565b90506113418282611510565b919050565b6000604051905090565b600067ffffffffffffffff82111561136b5761136a611648565b5b61137482611677565b9050602081019050919050565b6000819050602082019050919050565b600081519050919050565b600081519050919050565b6000602082019050919050565b600082825260208201905092915050565b600081905092915050565b600082825260208201905092915050565b600082825260208201905092915050565b600081905092915050565b600061140882611485565b915061141383611485565b9250827fffffffffffffffffffffffffffffffffffffffffffffffffffffffffffffffff03821115611448576114476115bb565b5b828201905092915050565b600061145e82611465565b9050919050565b600073ffffffffffffffffffffffffffffffffffffffff82169050919050565b6000819050919050565b600060ff82169050919050565b82818337600083830152505050565b60005b838110156114c95780820151818401526020810190506114ae565b838111156114d8576000848401525b50505050565b600060028204905060018216806114f657607f821691505b6020821081141561150a57611509611619565b5b50919050565b61151982611677565b810181811067ffffffffffffffff8211171561153857611537611648565b5b80604052505050565b600061154c82611485565b91507fffffffffffffffffffffffffffffffffffffffffffffffffffffffffffffffff82141561157f5761157e6115bb565b5b600182019050919050565b600061159582611485565b91506115a083611485565b9250826115b0576115af6115ea565b5b828206905092915050565b7f4e487b7100000000000000000000000000000000000000000000000000000000600052601160045260246000fd5b7f4e487b7100000000000000000000000000000000000000000000000000000000600052601260045260246000fd5b7f4e487b7100000000000000000000000000000000000000000000000000000000600052602260045260246000fd5b7f4e487b7100000000000000000000000000000000000000000000000000000000600052604160045260246000fd5b6000601f19601f8301169050919050565b7f547279696e6720746f207769746864726177206d6f7265206d6f6e657920746860008201527f616e2074686520636f6e7472616374206861732e000000000000000000000000602082015250565b7f4661696c656420746f207769746864726177206d6f6e65792066726f6d20636f60008201527f6e74726163742e00000000000000000000000000000000000000000000000000602082015250565b7f446f6e74207370616d206d65206964696f740000000000000000000000000000600082015250565b50565b61175b81611453565b811461176657600080fd5b50565b6117728161148f565b811461177d57600080fd5b5056fe25732077616e747320746f206265206f72204e616b616d612062656361757365202573a264697066735822122018bfde4795bd7e9b71c6f205581aa5c1464c7e2a6910b5cbc9cb1036c9051d5b64736f6c634300080400335a4f524f2e2e2e2054484953204953204120534d41525420434f4e54524143542e2e2e20434f4d45204241434b2042414b41",
  "linkReferences": {},
  "deployedLinkReferences": {}
}